:100000000C9461000C947E000C947E000C947E0095
:100010000C947E000C947E000C947E000C947E0068
:100020000C947E000C947E000C947E000C947E0058
:100030000C947E000C947E000C947E000C947E0048
:100040000C94C2010C947E000C947E000C947E00F3
:100050000C947E000C947E000C947E000C947E0028
:100060000C947E000C947E00000000002400270009
:100070002A0000000000250028002B0000000000DE
:1000800023002600290004040404040404040202DA
:100090000202020203030303030301020408102007
:1000A0004080010204081020010204081020000012
:1000B0000008000201000003040700000000000027
:1000C000000011241FBECFEFD8E0DEBFCDBF11E08E
:1000D000A0E0B1E0E4E0F7E002C005900D92A832A4
:1000E000B107D9F721E0A8E2B1E001C01D92A73322
:1000F000B207E1F70E940C020C9480030C940000FC
:10010000833081F028F4813099F08230A9F008958D
:100110008730A9F08830C9F08430B1F48091800034
:100120008F7D03C0809180008F7780938000089539
:1001300084B58F7784BD089584B58F7DFBCF809182
:10014000B0008F778093B00008958091B0008F7DCC
:10015000F9CFCF93DF93282F30E0F901E255FF4F1D
:100160008491F901E656FF4FD491F901EA57FF4F08
:10017000C491CC23A1F081110E948000EC2FF0E00B
:10018000EE0FFF1FE458FF4FA591B491EC91ED23C2
:1001900081E090E009F480E0DF91CF91089580E064
:1001A00090E0FACF1F93CF93DF93282F30E0F9012F
:1001B000E255FF4F8491F901E656FF4FD491F901C2
:1001C000EA57FF4FC491CC23A9F0162F81110E944A
:1001D0008000EC2FF0E0EE0FFF1FEE58FF4FA591CF
:1001E000B4918FB7F894EC91111108C0D095DE232B
:1001F000DC938FBFDF91CF911F910895DE2BF8CF55
:10020000CF93DF9390E0FC01E656FF4F24918A578D
:100210009F4FFC0184918823D1F090E0880F991FB3
:10022000FC01E859FF4FA591B491FC01EE58FF4F36
:10023000C591D491623071F49FB7F8943C91822FAC
:10024000809583238C93E8812E2B28839FBFDF9199
:10025000CF9108958FB7F894EC912E2B2C938FBFEC
:10026000F6CF3FB7F8948091330190913401A0917B
:100270003501B091360126B5A89B05C02F3F19F076
:100280000196A11DB11D3FBFBA2FA92F982F882716
:10029000BC01CD01620F711D811D911D42E0660FF1
:1002A000771F881F991F4A95D1F708958F929F92C3
:1002B000AF92BF92CF92DF92EF92FF924B015C011F
:1002C0000E9431016B017C010E9431016C197D0992
:1002D0008E099F09683E734081059105A8F321E0CE
:1002E000821A9108A108B10888EEC80E83E0D81ED2
:1002F000E11CF11C81149104A104B10429F7FF90C1
:10030000EF90DF90CF90BF90AF909F908F90089527
:10031000CF92DF92FF920F931F93CF93DF93EC0165
:10032000F62E60E08F2D0E94D200CC0FDD1FCC5F37
:10033000DE4FC880D98008E111E0D0E0C0E0F801CC
:1003400080810E5F1F4FB6010C2E02C07595679518
:100350000A94E2F761700E94D2002196C830D1055C
:1003600071F765E070E080E090E00E94560161E086
:100370008F2DDF91CF911F910F91FF90DF90CF9044
:100380000C94D2001F920F920FB60F9211242F934C
:100390003F938F939F93AF93BF9380912F01909141
:1003A0003001A0913101B091320130912E0123E052
:1003B000230F2D3758F50196A11DB11D20932E0155
:1003C00080932F0190933001A0933101B0933201BB
:1003D0008091330190913401A0913501B0913601A3
:1003E0000196A11DB11D8093330190933401A09318
:1003F0003501B0933601BF91AF919F918F913F919D
:100400002F910F900FBE0F901F90189526E8230F85
:100410000296A11DB11DD2CF789484B5826084BDAF
:1004200084B5816084BD85B5826085BD85B58160F8
:1004300085BD80916E00816080936E001092810076
:100440008091810082608093810080918100816031
:1004500080938100809180008160809380008091F2
:10046000B10084608093B1008091B000816080937E
:10047000B00080917A00846080937A0080917A0045
:10048000826080937A0080917A00816080937A0004
:1004900080917A00806880937A001092C100C8E150
:1004A000D1E038E2E32E31E0F32E1881229661E0AC
:1004B000812F0E94000160E0812F0E94D200EC1683
:1004C000FD0699F761E08AE00E94000161E08CE09E
:1004D0000E94000161E08BE00E94000161E08DE07C
:1004E0000E94000161E083E10E94000162E082E17C
:1004F0000E94000162E081E10E9400018AE0E82E92
:10050000F12CD1E090E0C92E90E0D92EC1E004E1B9
:1005100010E02BE3A22EB12C8091020190910301F7
:100520008436910514F083E690E0B7010E945803E9
:100530009B014C016AE070E0C9010E9488016BE0F8
:1005400070E0C4010E94880180912C0190912D01DE
:100550008436910514F083E690E0B7010E945803B9
:100560009B014C016CE070E0C9010E9488016DE0C4
:1005700070E0C4010E94880182E10E94A900892BD9
:1005800079F4809101018D278093010160E083E17E
:100590000E94D2006CE271E080E090E00E9456017F
:1005A00081E10E94A900892BB1F4C0930101C0939D
:1005B0000001109303010093020110922D0110928B
:1005C0002C0160E083E10E94D2006CE271E080E0E7
:1005D00090E00E94560180910101811133C02FB734
:1005E000F89480912F0190913001A0913101B09148
:1005F00032012FBF409128015091290160912A01B9
:1006000070912B013C014D01641A750A860A970A04
:10061000B401A301483E53406105710598F08093F1
:10062000280190932901A0932A01B0932B01809176
:100630002C0190912D01019797FD0BC090932D01F6
:1006400080932C01C114D10409F466CF0E940000EC
:1006500063CFB0922D01A0922C0180910201909164
:1006600003010197909303018093020197FFEACF62
:1006700080910001811111C01093030100930201C8
:1006800010922D0110922C01C0930001C093010122
:1006900061E083E10E94D200D5CF10920301109255
:1006A000020110932D0100932C0110920001EECF56
:1006B00097FB072E16F4009407D077FD09D00E940F
:1006C0006C0307FC05D03EF4909581959F4F0895EB
:1006D000709561957F4F0895AA1BBB1B51E107C020
:1006E000AA1FBB1FA617B70710F0A61BB70B881FC2
:1006F000991F5A95A9F780959095BC01CD01089551
:04070000F894FFCF9B
:1007040001011400FC006000DA00F2006600B6008B
:10071400BE00E000FE00F600090008000700060025
:080724000500040003000200BF
:00000001FF
